{
    "_format": "hh-sol-artifact-1",
    "contractName": "NFTicks",
    "sourceName": "contracts/NFTicks.sol",
    "abi": [
        {
            "inputs": [],
            "stateMutability": "payable",
            "type": "constructor"
        },
        {
            "anonymous": false,
            "inputs": [
                {
                    "indexed": true,
                    "internalType": "address",
                    "name": "owner",
                    "type": "address"
                },
                {
                    "indexed": true,
                    "internalType": "address",
                    "name": "approved",
                    "type": "address"
                },
                {
                    "indexed": true,
                    "internalType": "uint256",
                    "name": "tokenId",
                    "type": "uint256"
                }
            ],
            "name": "Approval",
            "type": "event"
        },
        {
            "anonymous": false,
            "inputs": [
                {
                    "indexed": true,
                    "internalType": "address",
                    "name": "owner",
                    "type": "address"
                },
                {
                    "indexed": true,
                    "internalType": "address",
                    "name": "operator",
                    "type": "address"
                },
                {
                    "indexed": false,
                    "internalType": "bool",
                    "name": "approved",
                    "type": "bool"
                }
            ],
            "name": "ApprovalForAll",
            "type": "event"
        },
        {
            "anonymous": false,
            "inputs": [
                {
                    "indexed": true,
                    "internalType": "address",
                    "name": "previousOwner",
                    "type": "address"
                },
                {
                    "indexed": true,
                    "internalType": "address",
                    "name": "newOwner",
                    "type": "address"
                }
            ],
            "name": "OwnershipTransferred",
            "type": "event"
        },
        {
            "anonymous": false,
            "inputs": [
                {
                    "indexed": true,
                    "internalType": "address",
                    "name": "from",
                    "type": "address"
                },
                {
                    "indexed": true,
                    "internalType": "address",
                    "name": "to",
                    "type": "address"
                },
                {
                    "indexed": true,
                    "internalType": "uint256",
                    "name": "tokenId",
                    "type": "uint256"
                }
            ],
            "name": "Transfer",
            "type": "event"
        },
        {
            "stateMutability": "payable",
            "type": "fallback"
        },
        {
            "inputs": [
                {
                    "internalType": "address",
                    "name": "to",
                    "type": "address"
                },
                {
                    "internalType": "uint256",
                    "name": "tokenId",
                    "type": "uint256"
                }
            ],
            "name": "approve",
            "outputs": [],
            "stateMutability": "nonpayable",
            "type": "function"
        },
        {
            "inputs": [],
            "name": "availableTickets",
            "outputs": [
                {
                    "internalType": "uint256",
                    "name": "",
                    "type": "uint256"
                }
            ],
            "stateMutability": "view",
            "type": "function"
        },
        {
            "inputs": [
                {
                    "internalType": "address",
                    "name": "owner",
                    "type": "address"
                }
            ],
            "name": "balanceOf",
            "outputs": [
                {
                    "internalType": "uint256",
                    "name": "",
                    "type": "uint256"
                }
            ],
            "stateMutability": "view",
            "type": "function"
        },
        {
            "inputs": [
                {
                    "internalType": "address",
                    "name": "_address",
                    "type": "address"
                }
            ],
            "name": "checkIn",
            "outputs": [],
            "stateMutability": "nonpayable",
            "type": "function"
        },
        {
            "inputs": [
                {
                    "internalType": "address",
                    "name": "",
                    "type": "address"
                }
            ],
            "name": "checkIns",
            "outputs": [
                {
                    "internalType": "bool",
                    "name": "",
                    "type": "bool"
                }
            ],
            "stateMutability": "view",
            "type": "function"
        },
        {
            "inputs": [],
            "name": "closeSale",
            "outputs": [],
            "stateMutability": "nonpayable",
            "type": "function"
        },
        {
            "inputs": [
                {
                    "internalType": "address",
                    "name": "_address",
                    "type": "address"
                }
            ],
            "name": "confirmOwnership",
            "outputs": [
                {
                    "internalType": "bool",
                    "name": "",
                    "type": "bool"
                }
            ],
            "stateMutability": "view",
            "type": "function"
        },
        {
            "inputs": [
                {
                    "internalType": "uint256",
                    "name": "tokenId",
                    "type": "uint256"
                }
            ],
            "name": "getApproved",
            "outputs": [
                {
                    "internalType": "address",
                    "name": "",
                    "type": "address"
                }
            ],
            "stateMutability": "view",
            "type": "function"
        },
        {
            "inputs": [],
            "name": "getAvailableTickets",
            "outputs": [
                {
                    "internalType": "uint256",
                    "name": "",
                    "type": "uint256"
                }
            ],
            "stateMutability": "view",
            "type": "function"
        },
        {
            "inputs": [
                {
                    "internalType": "address",
                    "name": "_address",
                    "type": "address"
                }
            ],
            "name": "getTokenId",
            "outputs": [
                {
                    "internalType": "uint256",
                    "name": "",
                    "type": "uint256"
                }
            ],
            "stateMutability": "view",
            "type": "function"
        },
        {
            "inputs": [],
            "name": "getTotalTickets",
            "outputs": [
                {
                    "internalType": "uint256",
                    "name": "",
                    "type": "uint256"
                }
            ],
            "stateMutability": "view",
            "type": "function"
        },
        {
            "inputs": [
                {
                    "internalType": "address",
                    "name": "",
                    "type": "address"
                },
                {
                    "internalType": "uint256",
                    "name": "",
                    "type": "uint256"
                }
            ],
            "name": "holderTokendIds",
            "outputs": [
                {
                    "internalType": "uint256",
                    "name": "",
                    "type": "uint256"
                }
            ],
            "stateMutability": "view",
            "type": "function"
        },
        {
            "inputs": [
                {
                    "internalType": "address",
                    "name": "owner",
                    "type": "address"
                },
                {
                    "internalType": "address",
                    "name": "operator",
                    "type": "address"
                }
            ],
            "name": "isApprovedForAll",
            "outputs": [
                {
                    "internalType": "bool",
                    "name": "",
                    "type": "bool"
                }
            ],
            "stateMutability": "view",
            "type": "function"
        },
        {
            "inputs": [],
            "name": "mint",
            "outputs": [],
            "stateMutability": "payable",
            "type": "function"
        },
        {
            "inputs": [],
            "name": "mintPrice",
            "outputs": [
                {
                    "internalType": "uint256",
                    "name": "",
                    "type": "uint256"
                }
            ],
            "stateMutability": "view",
            "type": "function"
        },
        {
            "inputs": [],
            "name": "name",
            "outputs": [
                {
                    "internalType": "string",
                    "name": "",
                    "type": "string"
                }
            ],
            "stateMutability": "view",
            "type": "function"
        },
        {
            "inputs": [],
            "name": "openSale",
            "outputs": [],
            "stateMutability": "nonpayable",
            "type": "function"
        },
        {
            "inputs": [],
            "name": "owner",
            "outputs": [
                {
                    "internalType": "address",
                    "name": "",
                    "type": "address"
                }
            ],
            "stateMutability": "view",
            "type": "function"
        },
        {
            "inputs": [
                {
                    "internalType": "uint256",
                    "name": "tokenId",
                    "type": "uint256"
                }
            ],
            "name": "ownerOf",
            "outputs": [
                {
                    "internalType": "address",
                    "name": "",
                    "type": "address"
                }
            ],
            "stateMutability": "view",
            "type": "function"
        },
        {
            "inputs": [],
            "name": "renounceOwnership",
            "outputs": [],
            "stateMutability": "nonpayable",
            "type": "function"
        },
        {
            "inputs": [
                {
                    "internalType": "address",
                    "name": "from",
                    "type": "address"
                },
                {
                    "internalType": "address",
                    "name": "to",
                    "type": "address"
                },
                {
                    "internalType": "uint256",
                    "name": "tokenId",
                    "type": "uint256"
                }
            ],
            "name": "safeTransferFrom",
            "outputs": [],
            "stateMutability": "nonpayable",
            "type": "function"
        },
        {
            "inputs": [
                {
                    "internalType": "address",
                    "name": "from",
                    "type": "address"
                },
                {
                    "internalType": "address",
                    "name": "to",
                    "type": "address"
                },
                {
                    "internalType": "uint256",
                    "name": "tokenId",
                    "type": "uint256"
                },
                {
                    "internalType": "bytes",
                    "name": "_data",
                    "type": "bytes"
                }
            ],
            "name": "safeTransferFrom",
            "outputs": [],
            "stateMutability": "nonpayable",
            "type": "function"
        },
        {
            "inputs": [],
            "name": "saleIsActive",
            "outputs": [
                {
                    "internalType": "bool",
                    "name": "",
                    "type": "bool"
                }
            ],
            "stateMutability": "view",
            "type": "function"
        },
        {
            "inputs": [
                {
                    "internalType": "address",
                    "name": "operator",
                    "type": "address"
                },
                {
                    "internalType": "bool",
                    "name": "approved",
                    "type": "bool"
                }
            ],
            "name": "setApprovalForAll",
            "outputs": [],
            "stateMutability": "nonpayable",
            "type": "function"
        },
        {
            "inputs": [
                {
                    "internalType": "bytes4",
                    "name": "interfaceId",
                    "type": "bytes4"
                }
            ],
            "name": "supportsInterface",
            "outputs": [
                {
                    "internalType": "bool",
                    "name": "",
                    "type": "bool"
                }
            ],
            "stateMutability": "view",
            "type": "function"
        },
        {
            "inputs": [],
            "name": "symbol",
            "outputs": [
                {
                    "internalType": "string",
                    "name": "",
                    "type": "string"
                }
            ],
            "stateMutability": "view",
            "type": "function"
        },
        {
            "inputs": [
                {
                    "internalType": "uint256",
                    "name": "tokenId",
                    "type": "uint256"
                }
            ],
            "name": "tokenURI",
            "outputs": [
                {
                    "internalType": "string",
                    "name": "",
                    "type": "string"
                }
            ],
            "stateMutability": "view",
            "type": "function"
        },
        {
            "inputs": [],
            "name": "totalTickets",
            "outputs": [
                {
                    "internalType": "uint256",
                    "name": "",
                    "type": "uint256"
                }
            ],
            "stateMutability": "view",
            "type": "function"
        },
        {
            "inputs": [
                {
                    "internalType": "address",
                    "name": "from",
                    "type": "address"
                },
                {
                    "internalType": "address",
                    "name": "to",
                    "type": "address"
                },
                {
                    "internalType": "uint256",
                    "name": "tokenId",
                    "type": "uint256"
                }
            ],
            "name": "transferFrom",
            "outputs": [],
            "stateMutability": "nonpayable",
            "type": "function"
        },
        {
            "inputs": [
                {
                    "internalType": "address",
                    "name": "newOwner",
                    "type": "address"
                }
            ],
            "name": "transferOwnership",
            "outputs": [],
            "stateMutability": "nonpayable",
            "type": "function"
        },
        {
            "stateMutability": "payable",
            "type": "receive"
        }
    ],
    "bytecode": "0x603c6009819055600a55661c6bf526340000600b5560066080818152654576656e747360d01b60a0908152610100604052600460c0908152631153919560e21b60e0529192620000529160009162000101565b5080516200006890600190602084019062000101565b505050620000856200007f620000a260201b60201c565b620000a6565b6200009c6008620000f860201b62000f561760201c565b620001e4565b3390565b600780546001600160a01b038381166001600160a01b0319831681179093556040519116919082907f8be0079c531659141344cd1fd0a4f28419497f9722a3daafe3b4186f6b6457e090600090a35050565b80546001019055565b8280546200010f90620001a7565b90600052602060002090601f0160209004810192826200013357600085556200017e565b82601f106200014e57805160ff19168380011785556200017e565b828001600101855582156200017e579182015b828111156200017e57825182559160200191906001019062000161565b506200018c92915062000190565b5090565b5b808211156200018c576000815560010162000191565b600181811c90821680620001bc57607f821691505b60208210811415620001de57634e487b7160e01b600052602260045260246000fd5b50919050565b6123b280620001f46000396000f3fe6080604052600436106101b95760003560e01c8063715018a6116100eb578063d9a59e331161008f578063eb8d244411610061578063eb8d24441461051d578063ee55efee1461053e578063f153768614610553578063f2fde38b1461057357005b8063d9a59e331461047e578063dd11247e1461049e578063e55cc7e2146104b4578063e985e9c5146104d457005b806395d89b41116100c857806395d89b4114610409578063a22cb4651461041e578063b88d4fde1461043e578063c87b56dd1461045e57005b8063715018a61461039e57806380f2abe3146103b35780638da5cb5b146103eb57005b80631acc9b621161015d5780635a8acacc1161012f5780635a8acacc146103335780636352211e146103485780636817c76c1461036857806370a082311461037e57005b80631acc9b62146102ad57806323b872dd146102dd5780633cfa7e01146102fd57806342842e0e1461031357005b8063081812fc11610196578063081812fc14610238578063095ea7b3146102705780631249c58b14610290578063167ff46f1461029857005b806301ffc9a7146101c257806306e8337f146101f757806306fdde031461021657005b366101c057005b005b3480156101ce57600080fd5b506101e26101dd366004611d1a565b610593565b60405190151581526020015b60405180910390f35b34801561020357600080fd5b506009545b6040519081526020016101ee565b34801561022257600080fd5b5061022b6105e5565b6040516101ee9190612101565b34801561024457600080fd5b50610258610253366004611d52565b610677565b6040516001600160a01b0390911681526020016101ee565b34801561027c57600080fd5b506101c061028b366004611cf1565b610704565b6101c061081a565b3480156102a457600080fd5b506101c06109d7565b3480156102b957600080fd5b506101e26102c8366004611b5b565b600d6020526000908152604090205460ff1681565b3480156102e957600080fd5b506101c06102f8366004611ba7565b610a16565b34801561030957600080fd5b50610208600a5481565b34801561031f57600080fd5b506101c061032e366004611ba7565b610a47565b34801561033f57600080fd5b50600a54610208565b34801561035457600080fd5b50610258610363366004611d52565b610a62565b34801561037457600080fd5b50610208600b5481565b34801561038a57600080fd5b50610208610399366004611b5b565b610ad9565b3480156103aa57600080fd5b506101c0610b60565b3480156103bf57600080fd5b506101e26103ce366004611b5b565b6001600160a01b03166000908152600c6020526040902054151590565b3480156103f757600080fd5b506007546001600160a01b0316610258565b34801561041557600080fd5b5061022b610b96565b34801561042a57600080fd5b506101c0610439366004611cb7565b610ba5565b34801561044a57600080fd5b506101c0610459366004611be2565b610bb4565b34801561046a57600080fd5b5061022b610479366004611d52565b610bec565b34801561048a57600080fd5b506101c0610499366004611b5b565b610d63565b3480156104aa57600080fd5b5061020860095481565b3480156104c057600080fd5b506102086104cf366004611cf1565b610e09565b3480156104e057600080fd5b506101e26104ef366004611b75565b6001600160a01b03918216600090815260056020908152604080832093909416825291909152205460ff1690565b34801561052957600080fd5b506007546101e290600160a01b900460ff1681565b34801561054a57600080fd5b506101c0610e3a565b34801561055f57600080fd5b5061020861056e366004611b5b565b610e73565b34801561057f57600080fd5b506101c061058e366004611b5b565b610ebb565b60006001600160e01b031982166380ac58cd60e01b14806105c457506001600160e01b03198216635b5e139f60e01b145b806105df57506301ffc9a760e01b6001600160e01b03198316145b92915050565b6060600080546105f49061227a565b80601f01602080910402602001604051908101604052809291908181526020018280546106209061227a565b801561066d5780601f106106425761010080835404028352916020019161066d565b820191906000526020600020905b81548152906001019060200180831161065057829003601f168201915b5050505050905090565b600061068282610f5f565b6106e85760405162461bcd60e51b815260206004820152602c60248201527f4552433732313a20617070726f76656420717565727920666f72206e6f6e657860448201526b34b9ba32b73a103a37b5b2b760a11b60648201526084015b60405180910390fd5b506000908152600460205260409020546001600160a01b031690565b600061070f82610a62565b9050806001600160a01b0316836001600160a01b0316141561077d5760405162461bcd60e51b815260206004820152602160248201527f4552433732313a20617070726f76616c20746f2063757272656e74206f776e656044820152603960f91b60648201526084016106df565b336001600160a01b0382161480610799575061079981336104ef565b61080b5760405162461bcd60e51b815260206004820152603860248201527f4552433732313a20617070726f76652063616c6c6572206973206e6f74206f7760448201527f6e6572206e6f7220617070726f76656420666f7220616c6c000000000000000060648201526084016106df565b6108158383610f7c565b505050565b6000600a541161085f5760405162461bcd60e51b815260206004820152601060248201526f151a58dad95d1cc814dbdb190813dd5d60821b60448201526064016106df565b600b543410156108a65760405162461bcd60e51b8152602060048201526012602482015271496e73756666696369656e742046756e647360701b60448201526064016106df565b600754600160a01b900460ff166108f85760405162461bcd60e51b8152602060048201526016602482015275151a58dad95d0814d85b195cc81a5cc810db1bdcd95960521b60448201526064016106df565b600061093261090e61090960085490565b610fea565b60405160200161091e9190611f5c565b604051602081830303815290604052611104565b9050600081604051602001610947919061207f565b604051602081830303815290604052905061096181611278565b6109733361096e60085490565b6112bb565b61098561097f60085490565b826112d5565b336000908152600c60205260409020600854815460018101835560009283526020909220909101556109bb600880546001019055565b6001600a60008282546109ce9190612237565b90915550505050565b6007546001600160a01b03163314610a015760405162461bcd60e51b81526004016106df90612166565b6007805460ff60a01b1916600160a01b179055565b610a203382611360565b610a3c5760405162461bcd60e51b81526004016106df9061219b565b610815838383611446565b61081583838360405180602001604052806000815250610bb4565b6000818152600260205260408120546001600160a01b0316806105df5760405162461bcd60e51b815260206004820152602960248201527f4552433732313a206f776e657220717565727920666f72206e6f6e657869737460448201526832b73a103a37b5b2b760b91b60648201526084016106df565b60006001600160a01b038216610b445760405162461bcd60e51b815260206004820152602a60248201527f4552433732313a2062616c616e636520717565727920666f7220746865207a65604482015269726f206164647265737360b01b60648201526084016106df565b506001600160a01b031660009081526003602052604090205490565b6007546001600160a01b03163314610b8a5760405162461bcd60e51b81526004016106df90612166565b610b9460006115e6565b565b6060600180546105f49061227a565b610bb0338383611638565b5050565b610bbe3383611360565b610bda5760405162461bcd60e51b81526004016106df9061219b565b610be684848484611707565b50505050565b6060610bf782610f5f565b610c5d5760405162461bcd60e51b815260206004820152603160248201527f45524337323155524953746f726167653a2055524920717565727920666f72206044820152703737b732bc34b9ba32b73a103a37b5b2b760791b60648201526084016106df565b60008281526006602052604081208054610c769061227a565b80601f0160208091040260200160405190810160405280929190818152602001828054610ca29061227a565b8015610cef5780601f10610cc457610100808354040283529160200191610cef565b820191906000526020600020905b815481529060010190602001808311610cd257829003601f168201915b505050505090506000610d0d60408051602081019091526000815290565b9050805160001415610d20575092915050565b815115610d52578082604051602001610d3a929190611e0b565b60405160208183030381529060405292505050919050565b610d5b8461173a565b949350505050565b6001600160a01b0381166000908152600d60209081526040808320805460ff19166001179055600c909152812080548290610dae57634e487b7160e01b600052603260045260246000fd5b906000526020600020015490506000610dd9610dc983610fea565b60405160200161091e9190611e3a565b9050600081604051602001610dee919061207f565b6040516020818303038152906040529050610be683826112d5565b600c6020528160005260406000208181548110610e2557600080fd5b90600052602060002001600091509150505481565b6007546001600160a01b03163314610e645760405162461bcd60e51b81526004016106df90612166565b6007805460ff60a01b19169055565b6001600160a01b0381166000908152600c6020526040812080548290610ea957634e487b7160e01b600052603260045260246000fd5b90600052602060002001549050919050565b6007546001600160a01b03163314610ee55760405162461bcd60e51b81526004016106df90612166565b6001600160a01b038116610f4a5760405162461bcd60e51b815260206004820152602660248201527f4f776e61626c653a206e6577206f776e657220697320746865207a65726f206160448201526564647265737360d01b60648201526084016106df565b610f53816115e6565b50565b80546001019055565b6000908152600260205260409020546001600160a01b0316151590565b600081815260046020526040902080546001600160a01b0319166001600160a01b0384169081179091558190610fb182610a62565b6001600160a01b03167f8c5be1e5ebec7d5bd14f71427d1e84f3dd0314c0f7b2291e5b200ac8c7c3b92560405160405180910390a45050565b60608161100e5750506040805180820190915260018152600360fc1b602082015290565b8160005b81156110385780611022816122b5565b91506110319050600a83612204565b9150611012565b60008167ffffffffffffffff81111561106157634e487b7160e01b600052604160045260246000fd5b6040519080825280601f01601f19166020018201604052801561108b576020820181803683370190505b5090505b8415610d5b576110a0600183612237565b91506110ad600a866122d0565b6110b89060306121ec565b60f81b8183815181106110db57634e487b7160e01b600052603260045260246000fd5b60200101906001600160f81b031916908160001a9053506110fd600a86612204565b945061108f565b805160609080611124575050604080516020810190915260008152919050565b600060036111338360026121ec565b61113d9190612204565b611148906004612218565b905060006111578260206121ec565b67ffffffffffffffff81111561117d57634e487b7160e01b600052604160045260246000fd5b6040519080825280601f01601f1916602001820160405280156111a7576020820181803683370190505b509050600060405180606001604052806040815260200161233d604091399050600181016020830160005b86811015611233576003818a01810151603f601282901c8116860151600c83901c8216870151600684901c831688015192909316870151600891821b60ff94851601821b92841692909201901b91160160e01b8352600490920191016111d2565b50600386066001811461124d576002811461125e5761126a565b613d3d60f01b60011983015261126a565b603d60f81b6000198301525b505050918152949350505050565b610f538160405160240161128c9190612101565b60408051601f198184030181529190526020810180516001600160e01b031663104c13eb60e21b179052611812565b610bb0828260405180602001604052806000815250611833565b6112de82610f5f565b6113415760405162461bcd60e51b815260206004820152602e60248201527f45524337323155524953746f726167653a2055524920736574206f66206e6f6e60448201526d32bc34b9ba32b73a103a37b5b2b760911b60648201526084016106df565b6000828152600660209081526040909120825161081592840190611aa6565b600061136b82610f5f565b6113cc5760405162461bcd60e51b815260206004820152602c60248201527f4552433732313a206f70657261746f7220717565727920666f72206e6f6e657860448201526b34b9ba32b73a103a37b5b2b760a11b60648201526084016106df565b60006113d783610a62565b9050806001600160a01b0316846001600160a01b031614806114125750836001600160a01b031661140784610677565b6001600160a01b0316145b80610d5b57506001600160a01b0380821660009081526005602090815260408083209388168352929052205460ff16610d5b565b826001600160a01b031661145982610a62565b6001600160a01b0316146114c15760405162461bcd60e51b815260206004820152602960248201527f4552433732313a207472616e73666572206f6620746f6b656e2074686174206960448201526839903737ba1037bbb760b91b60648201526084016106df565b6001600160a01b0382166115235760405162461bcd60e51b8152602060048201526024808201527f4552433732313a207472616e7366657220746f20746865207a65726f206164646044820152637265737360e01b60648201526084016106df565b61152e600082610f7c565b6001600160a01b0383166000908152600360205260408120805460019290611557908490612237565b90915550506001600160a01b03821660009081526003602052604081208054600192906115859084906121ec565b909155505060008181526002602052604080822080546001600160a01b0319166001600160a01b0386811691821790925591518493918716917fddf252ad1be2c89b69c2b068fc378daa952ba7f163c4a11628f55a4df523b3ef91a4505050565b600780546001600160a01b038381166001600160a01b0319831681179093556040519116919082907f8be0079c531659141344cd1fd0a4f28419497f9722a3daafe3b4186f6b6457e090600090a35050565b816001600160a01b0316836001600160a01b0316141561169a5760405162461bcd60e51b815260206004820152601960248201527f4552433732313a20617070726f766520746f2063616c6c65720000000000000060448201526064016106df565b6001600160a01b03838116600081815260056020908152604080832094871680845294825291829020805460ff191686151590811790915591519182527f17307eab39ab6107e8899845ad3d59bd9653f200f220920489ca2b5937696c31910160405180910390a3505050565b611712848484611446565b61171e84848484611866565b610be65760405162461bcd60e51b81526004016106df90612114565b606061174582610f5f565b6117a95760405162461bcd60e51b815260206004820152602f60248201527f4552433732314d657461646174613a2055524920717565727920666f72206e6f60448201526e3732bc34b9ba32b73a103a37b5b2b760891b60648201526084016106df565b60006117c060408051602081019091526000815290565b905060008151116117e0576040518060200160405280600081525061180b565b806117ea84610fea565b6040516020016117fb929190611e0b565b6040516020818303038152906040525b9392505050565b80516a636f6e736f6c652e6c6f67602083016000808483855afa5050505050565b61183d8383611973565b61184a6000848484611866565b6108155760405162461bcd60e51b81526004016106df90612114565b60006001600160a01b0384163b1561196857604051630a85bd0160e11b81526001600160a01b0385169063150b7a02906118aa9033908990889088906004016120c4565b602060405180830381600087803b1580156118c457600080fd5b505af19250505080156118f4575060408051601f3d908101601f191682019092526118f191810190611d36565b60015b61194e573d808015611922576040519150601f19603f3d011682016040523d82523d6000602084013e611927565b606091505b5080516119465760405162461bcd60e51b81526004016106df90612114565b805181602001fd5b6001600160e01b031916630a85bd0160e11b149050610d5b565b506001949350505050565b6001600160a01b0382166119c95760405162461bcd60e51b815260206004820181905260248201527f4552433732313a206d696e7420746f20746865207a65726f206164647265737360448201526064016106df565b6119d281610f5f565b15611a1f5760405162461bcd60e51b815260206004820152601c60248201527f4552433732313a20746f6b656e20616c7265616479206d696e7465640000000060448201526064016106df565b6001600160a01b0382166000908152600360205260408120805460019290611a489084906121ec565b909155505060008181526002602052604080822080546001600160a01b0319166001600160a01b03861690811790915590518392907fddf252ad1be2c89b69c2b068fc378daa952ba7f163c4a11628f55a4df523b3ef908290a45050565b828054611ab29061227a565b90600052602060002090601f016020900481019282611ad45760008555611b1a565b82601f10611aed57805160ff1916838001178555611b1a565b82800160010185558215611b1a579182015b82811115611b1a578251825591602001919060010190611aff565b50611b26929150611b2a565b5090565b5b80821115611b265760008155600101611b2b565b80356001600160a01b0381168114611b5657600080fd5b919050565b600060208284031215611b6c578081fd5b61180b82611b3f565b60008060408385031215611b87578081fd5b611b9083611b3f565b9150611b9e60208401611b3f565b90509250929050565b600080600060608486031215611bbb578081fd5b611bc484611b3f565b9250611bd260208501611b3f565b9150604084013590509250925092565b60008060008060808587031215611bf7578081fd5b611c0085611b3f565b9350611c0e60208601611b3f565b925060408501359150606085013567ffffffffffffffff80821115611c31578283fd5b818701915087601f830112611c44578283fd5b813581811115611c5657611c56612310565b604051601f8201601f19908116603f01168101908382118183101715611c7e57611c7e612310565b816040528281528a6020848701011115611c96578586fd5b82602086016020830137918201602001949094529598949750929550505050565b60008060408385031215611cc9578182fd5b611cd283611b3f565b915060208301358015158114611ce6578182fd5b809150509250929050565b60008060408385031215611d03578182fd5b611d0c83611b3f565b946020939093013593505050565b600060208284031215611d2b578081fd5b813561180b81612326565b600060208284031215611d47578081fd5b815161180b81612326565b600060208284031215611d63578081fd5b5035919050565b60008151808452611d8281602086016020860161224e565b601f01601f19169290920160200192915050565b7f222c20226465736372697074696f6e223a202241204e46542d706f776572656481527f207469636b6574696e672073797374656d20666f72205765622033204272696460208201527f6765203230323220546f776e68616c6c206d65657474696e67222c20000000006040820152605c0190565b60008351611e1d81846020880161224e565b835190830190611e3181836020880161224e565b01949350505050565b707b20226e616d65223a2022454e4654202360781b81528151600090611e6781601185016020870161224e565b611e75601182850101611d96565b7f22747261697473223a205b7b202274726169745f74797065223a20224368656381527f6b656420496e222c202276616c7565223a20227472756522207d2c207b20227460208201527f726169745f74797065223a2022507572636861736564222c202276616c75652260408201526c01d10113a393ab291103eae961609d1b60608201527f22696d616765223a2022697066733a2f2f516d64384643627235656946637253606d8201527f7a6a3350526f76473631745665757333484a7a54334234365858614a6d576a22608d82015261207d60f01b60ad82015260af01949350505050565b707b20226e616d65223a2022454e4654202360781b81528151600090611f8981601185016020870161224e565b611f97601182850101611d96565b7f22747261697473223a205b7b202274726169745f74797065223a20224368656381527f6b656420496e222c202276616c7565223a202266616c736522207d2c207b202260208201527f74726169745f74797065223a2022507572636861736564222c202276616c756560408201526d0111d10113a393ab291103eae96160951b60608201527f22696d616765223a2022697066733a2f2f516d557558714d764a636b4668666f606e8201527f45614c464d4566756d36726f7167726a5165646f52756974697a77336b775122608e82015261207d60f01b60ae82015260b001949350505050565b7f646174613a6170706c69636174696f6e2f6a736f6e3b6261736536342c0000008152600082516120b781601d85016020870161224e565b91909101601d0192915050565b6001600160a01b03858116825284166020820152604081018390526080606082018190526000906120f790830184611d6a565b9695505050505050565b60208152600061180b6020830184611d6a565b60208082526032908201527f4552433732313a207472616e7366657220746f206e6f6e20455243373231526560408201527131b2b4bb32b91034b6b83632b6b2b73a32b960711b606082015260800190565b6020808252818101527f4f776e61626c653a2063616c6c6572206973206e6f7420746865206f776e6572604082015260600190565b60208082526031908201527f4552433732313a207472616e736665722063616c6c6572206973206e6f74206f6040820152701ddb995c881b9bdc88185c1c1c9bdd9959607a1b606082015260800190565b600082198211156121ff576121ff6122e4565b500190565b600082612213576122136122fa565b500490565b6000816000190483118215151615612232576122326122e4565b500290565b600082821015612249576122496122e4565b500390565b60005b83811015612269578181015183820152602001612251565b83811115610be65750506000910152565b600181811c9082168061228e57607f821691505b602082108114156122af57634e487b7160e01b600052602260045260246000fd5b50919050565b60006000198214156122c9576122c96122e4565b5060010190565b6000826122df576122df6122fa565b500690565b634e487b7160e01b600052601160045260246000fd5b634e487b7160e01b600052601260045260246000fd5b634e487b7160e01b600052604160045260246000fd5b6001600160e01b031981168114610f5357600080fdfe4142434445464748494a4b4c4d4e4f505152535455565758595a6162636465666768696a6b6c6d6e6f707172737475767778797a303132333435363738392b2fa2646970667358221220b4b115f4f11ce1ada2a7de53f162d07e03acab61e7328c1a6099811109e4f8d264736f6c63430008040033",
    "linkReferences": {},
    "deployedLinkReferences": {}
}