{
    "_format": "hh-sol-artifact-1",
    "contractName": "NFTicks",
    "sourceName": "contracts/NFTicks.sol",
    "abi": [
        {
            "inputs": [],
            "stateMutability": "payable",
            "type": "constructor"
        },
        {
            "anonymous": false,
            "inputs": [
                {
                    "indexed": true,
                    "internalType": "address",
                    "name": "owner",
                    "type": "address"
                },
                {
                    "indexed": true,
                    "internalType": "address",
                    "name": "approved",
                    "type": "address"
                },
                {
                    "indexed": true,
                    "internalType": "uint256",
                    "name": "tokenId",
                    "type": "uint256"
                }
            ],
            "name": "Approval",
            "type": "event"
        },
        {
            "anonymous": false,
            "inputs": [
                {
                    "indexed": true,
                    "internalType": "address",
                    "name": "owner",
                    "type": "address"
                },
                {
                    "indexed": true,
                    "internalType": "address",
                    "name": "operator",
                    "type": "address"
                },
                {
                    "indexed": false,
                    "internalType": "bool",
                    "name": "approved",
                    "type": "bool"
                }
            ],
            "name": "ApprovalForAll",
            "type": "event"
        },
        {
            "anonymous": false,
            "inputs": [
                {
                    "indexed": true,
                    "internalType": "address",
                    "name": "previousOwner",
                    "type": "address"
                },
                {
                    "indexed": true,
                    "internalType": "address",
                    "name": "newOwner",
                    "type": "address"
                }
            ],
            "name": "OwnershipTransferred",
            "type": "event"
        },
        {
            "anonymous": false,
            "inputs": [
                {
                    "indexed": true,
                    "internalType": "address",
                    "name": "from",
                    "type": "address"
                },
                {
                    "indexed": true,
                    "internalType": "address",
                    "name": "to",
                    "type": "address"
                },
                {
                    "indexed": true,
                    "internalType": "uint256",
                    "name": "tokenId",
                    "type": "uint256"
                }
            ],
            "name": "Transfer",
            "type": "event"
        },
        {
            "stateMutability": "payable",
            "type": "fallback"
        },
        {
            "inputs": [
                {
                    "internalType": "address",
                    "name": "to",
                    "type": "address"
                },
                {
                    "internalType": "uint256",
                    "name": "tokenId",
                    "type": "uint256"
                }
            ],
            "name": "approve",
            "outputs": [],
            "stateMutability": "nonpayable",
            "type": "function"
        },
        {
            "inputs": [],
            "name": "availableTickets",
            "outputs": [
                {
                    "internalType": "uint256",
                    "name": "",
                    "type": "uint256"
                }
            ],
            "stateMutability": "view",
            "type": "function"
        },
        {
            "inputs": [
                {
                    "internalType": "address",
                    "name": "owner",
                    "type": "address"
                }
            ],
            "name": "balanceOf",
            "outputs": [
                {
                    "internalType": "uint256",
                    "name": "",
                    "type": "uint256"
                }
            ],
            "stateMutability": "view",
            "type": "function"
        },
        {
            "inputs": [],
            "name": "closeSale",
            "outputs": [],
            "stateMutability": "nonpayable",
            "type": "function"
        },
        {
            "inputs": [
                {
                    "internalType": "uint256",
                    "name": "tokenId",
                    "type": "uint256"
                }
            ],
            "name": "getApproved",
            "outputs": [
                {
                    "internalType": "address",
                    "name": "",
                    "type": "address"
                }
            ],
            "stateMutability": "view",
            "type": "function"
        },
        {
            "inputs": [],
            "name": "getAvailableTickets",
            "outputs": [
                {
                    "internalType": "uint256",
                    "name": "",
                    "type": "uint256"
                }
            ],
            "stateMutability": "view",
            "type": "function"
        },
        {
            "inputs": [],
            "name": "getTotalTickets",
            "outputs": [
                {
                    "internalType": "uint256",
                    "name": "",
                    "type": "uint256"
                }
            ],
            "stateMutability": "view",
            "type": "function"
        },
        {
            "inputs": [
                {
                    "internalType": "address",
                    "name": "",
                    "type": "address"
                }
            ],
            "name": "holderTokendIds",
            "outputs": [
                {
                    "internalType": "uint256",
                    "name": "",
                    "type": "uint256"
                }
            ],
            "stateMutability": "view",
            "type": "function"
        },
        {
            "inputs": [
                {
                    "internalType": "address",
                    "name": "owner",
                    "type": "address"
                },
                {
                    "internalType": "address",
                    "name": "operator",
                    "type": "address"
                }
            ],
            "name": "isApprovedForAll",
            "outputs": [
                {
                    "internalType": "bool",
                    "name": "",
                    "type": "bool"
                }
            ],
            "stateMutability": "view",
            "type": "function"
        },
        {
            "inputs": [],
            "name": "mint",
            "outputs": [],
            "stateMutability": "payable",
            "type": "function"
        },
        {
            "inputs": [],
            "name": "mintPrice",
            "outputs": [
                {
                    "internalType": "uint256",
                    "name": "",
                    "type": "uint256"
                }
            ],
            "stateMutability": "view",
            "type": "function"
        },
        {
            "inputs": [],
            "name": "name",
            "outputs": [
                {
                    "internalType": "string",
                    "name": "",
                    "type": "string"
                }
            ],
            "stateMutability": "view",
            "type": "function"
        },
        {
            "inputs": [],
            "name": "openSale",
            "outputs": [],
            "stateMutability": "nonpayable",
            "type": "function"
        },
        {
            "inputs": [],
            "name": "owner",
            "outputs": [
                {
                    "internalType": "address",
                    "name": "",
                    "type": "address"
                }
            ],
            "stateMutability": "view",
            "type": "function"
        },
        {
            "inputs": [
                {
                    "internalType": "uint256",
                    "name": "tokenId",
                    "type": "uint256"
                }
            ],
            "name": "ownerOf",
            "outputs": [
                {
                    "internalType": "address",
                    "name": "",
                    "type": "address"
                }
            ],
            "stateMutability": "view",
            "type": "function"
        },
        {
            "inputs": [],
            "name": "renounceOwnership",
            "outputs": [],
            "stateMutability": "nonpayable",
            "type": "function"
        },
        {
            "inputs": [
                {
                    "internalType": "address",
                    "name": "from",
                    "type": "address"
                },
                {
                    "internalType": "address",
                    "name": "to",
                    "type": "address"
                },
                {
                    "internalType": "uint256",
                    "name": "tokenId",
                    "type": "uint256"
                }
            ],
            "name": "safeTransferFrom",
            "outputs": [],
            "stateMutability": "nonpayable",
            "type": "function"
        },
        {
            "inputs": [
                {
                    "internalType": "address",
                    "name": "from",
                    "type": "address"
                },
                {
                    "internalType": "address",
                    "name": "to",
                    "type": "address"
                },
                {
                    "internalType": "uint256",
                    "name": "tokenId",
                    "type": "uint256"
                },
                {
                    "internalType": "bytes",
                    "name": "_data",
                    "type": "bytes"
                }
            ],
            "name": "safeTransferFrom",
            "outputs": [],
            "stateMutability": "nonpayable",
            "type": "function"
        },
        {
            "inputs": [],
            "name": "saleIsActive",
            "outputs": [
                {
                    "internalType": "bool",
                    "name": "",
                    "type": "bool"
                }
            ],
            "stateMutability": "view",
            "type": "function"
        },
        {
            "inputs": [
                {
                    "internalType": "address",
                    "name": "operator",
                    "type": "address"
                },
                {
                    "internalType": "bool",
                    "name": "approved",
                    "type": "bool"
                }
            ],
            "name": "setApprovalForAll",
            "outputs": [],
            "stateMutability": "nonpayable",
            "type": "function"
        },
        {
            "inputs": [
                {
                    "internalType": "bytes4",
                    "name": "interfaceId",
                    "type": "bytes4"
                }
            ],
            "name": "supportsInterface",
            "outputs": [
                {
                    "internalType": "bool",
                    "name": "",
                    "type": "bool"
                }
            ],
            "stateMutability": "view",
            "type": "function"
        },
        {
            "inputs": [],
            "name": "symbol",
            "outputs": [
                {
                    "internalType": "string",
                    "name": "",
                    "type": "string"
                }
            ],
            "stateMutability": "view",
            "type": "function"
        },
        {
            "inputs": [
                {
                    "internalType": "uint256",
                    "name": "tokenId",
                    "type": "uint256"
                }
            ],
            "name": "tokenURI",
            "outputs": [
                {
                    "internalType": "string",
                    "name": "",
                    "type": "string"
                }
            ],
            "stateMutability": "view",
            "type": "function"
        },
        {
            "inputs": [],
            "name": "totalTickets",
            "outputs": [
                {
                    "internalType": "uint256",
                    "name": "",
                    "type": "uint256"
                }
            ],
            "stateMutability": "view",
            "type": "function"
        },
        {
            "inputs": [
                {
                    "internalType": "address",
                    "name": "from",
                    "type": "address"
                },
                {
                    "internalType": "address",
                    "name": "to",
                    "type": "address"
                },
                {
                    "internalType": "uint256",
                    "name": "tokenId",
                    "type": "uint256"
                }
            ],
            "name": "transferFrom",
            "outputs": [],
            "stateMutability": "nonpayable",
            "type": "function"
        },
        {
            "inputs": [
                {
                    "internalType": "address",
                    "name": "newOwner",
                    "type": "address"
                }
            ],
            "name": "transferOwnership",
            "outputs": [],
            "stateMutability": "nonpayable",
            "type": "function"
        },
        {
            "stateMutability": "payable",
            "type": "receive"
        }
    ],
    "bytecode": "0x600a60098190558055661c6bf526340000600b5560066080818152654576656e747360d01b60a0908152610100604052600460c0908152631153919560e21b60e0529192620000519160009162000100565b5080516200006790600190602084019062000100565b505050620000846200007e620000a160201b60201c565b620000a5565b6200009b6008620000f760201b62000dda1760201c565b620001e3565b3390565b600780546001600160a01b038381166001600160a01b0319831681179093556040519116919082907f8be0079c531659141344cd1fd0a4f28419497f9722a3daafe3b4186f6b6457e090600090a35050565b80546001019055565b8280546200010e90620001a6565b90600052602060002090601f0160209004810192826200013257600085556200017d565b82601f106200014d57805160ff19168380011785556200017d565b828001600101855582156200017d579182015b828111156200017d57825182559160200191906001019062000160565b506200018b9291506200018f565b5090565b5b808211156200018b576000815560010162000190565b600181811c90821680620001bb57607f821691505b60208210811415620001dd57634e487b7160e01b600052602260045260246000fd5b50919050565b61218c80620001f36000396000f3fe6080604052600436106101735760003560e01c806370a08231116100c8578063c87b56dd11610084578063eb8d244411610061578063eb8d24441461042f578063ee55efee14610450578063f2fde38b14610465578063fa82982f1461048557005b8063c87b56dd146103b0578063dd11247e146103d0578063e985e9c5146103e657005b806370a0823114610308578063715018a6146103285780638da5cb5b1461033d57806395d89b411461035b578063a22cb46514610370578063b88d4fde1461039057005b8063167ff46f1161012f57806342842e0e1161010c57806342842e0e1461029d5780635a8acacc146102bd5780636352211e146102d25780636817c76c146102f257005b8063167ff46f1461025257806323b872dd146102675780633cfa7e011461028757005b806301ffc9a71461017c57806306e8337f146101b157806306fdde03146101d0578063081812fc146101f2578063095ea7b31461022a5780631249c58b1461024a57005b3661017a57005b005b34801561018857600080fd5b5061019c610197366004611bc5565b6104b2565b60405190151581526020015b60405180910390f35b3480156101bd57600080fd5b506009545b6040519081526020016101a8565b3480156101dc57600080fd5b506101e5610504565b6040516101a89190611e90565b3480156101fe57600080fd5b5061021261020d366004611bfd565b610596565b6040516001600160a01b0390911681526020016101a8565b34801561023657600080fd5b5061017a610245366004611b9c565b610623565b61017a610739565b34801561025e57600080fd5b5061017a61097a565b34801561027357600080fd5b5061017a610282366004611a52565b6109b9565b34801561029357600080fd5b506101c2600a5481565b3480156102a957600080fd5b5061017a6102b8366004611a52565b6109ea565b3480156102c957600080fd5b50600a546101c2565b3480156102de57600080fd5b506102126102ed366004611bfd565b610a05565b3480156102fe57600080fd5b506101c2600b5481565b34801561031457600080fd5b506101c2610323366004611a06565b610a7c565b34801561033457600080fd5b5061017a610b03565b34801561034957600080fd5b506007546001600160a01b0316610212565b34801561036757600080fd5b506101e5610b39565b34801561037c57600080fd5b5061017a61038b366004611b62565b610b48565b34801561039c57600080fd5b5061017a6103ab366004611a8d565b610b57565b3480156103bc57600080fd5b506101e56103cb366004611bfd565b610b8f565b3480156103dc57600080fd5b506101c260095481565b3480156103f257600080fd5b5061019c610401366004611a20565b6001600160a01b03918216600090815260056020908152604080832093909416825291909152205460ff1690565b34801561043b57600080fd5b5060075461019c90600160a01b900460ff1681565b34801561045c57600080fd5b5061017a610d06565b34801561047157600080fd5b5061017a610480366004611a06565b610d3f565b34801561049157600080fd5b506101c26104a0366004611a06565b600c6020526000908152604090205481565b60006001600160e01b031982166380ac58cd60e01b14806104e357506001600160e01b03198216635b5e139f60e01b145b806104fe57506301ffc9a760e01b6001600160e01b03198316145b92915050565b60606000805461051390612009565b80601f016020809104026020016040519081016040528092919081815260200182805461053f90612009565b801561058c5780601f106105615761010080835404028352916020019161058c565b820191906000526020600020905b81548152906001019060200180831161056f57829003601f168201915b5050505050905090565b60006105a182610de3565b6106075760405162461bcd60e51b815260206004820152602c60248201527f4552433732313a20617070726f76656420717565727920666f72206e6f6e657860448201526b34b9ba32b73a103a37b5b2b760a11b60648201526084015b60405180910390fd5b506000908152600460205260409020546001600160a01b031690565b600061062e82610a05565b9050806001600160a01b0316836001600160a01b0316141561069c5760405162461bcd60e51b815260206004820152602160248201527f4552433732313a20617070726f76616c20746f2063757272656e74206f776e656044820152603960f91b60648201526084016105fe565b336001600160a01b03821614806106b857506106b88133610401565b61072a5760405162461bcd60e51b815260206004820152603860248201527f4552433732313a20617070726f76652063616c6c6572206973206e6f74206f7760448201527f6e6572206e6f7220617070726f76656420666f7220616c6c000000000000000060648201526084016105fe565b6107348383610e00565b505050565b6000600a541161077e5760405162461bcd60e51b815260206004820152601060248201526f151a58dad95d1cc814dbdb190813dd5d60821b60448201526064016105fe565b600b543410156107c55760405162461bcd60e51b8152602060048201526012602482015271496e73756666696369656e742046756e647360701b60448201526064016105fe565b600754600160a01b900460ff166108175760405162461bcd60e51b8152602060048201526016602482015275151a58dad95d0814d85b195cc81a5cc810db1bdcd95960521b60448201526064016105fe565b61081f61192a565b6040518060800160405280604b81526020016120cc604b9139815260085461084b90610e6e565b610e6e565b6020828101918252604080518082018252600d81526c1e17ba32bc3a1f1e17b9bb339f60991b81840152818501819052845193519151600094610892949093929101611c70565b604051602081830303815290604052905060006108ae82610f88565b905060006108e76108c161084660085490565b836040516020016108d3929190611cb3565b604051602081830303815290604052610f88565b90506000816040516020016108fc9190611e18565b6040516020818303038152906040529050610916816110fc565b6109283361092360085490565b61113f565b61093a61093460085490565b82611159565b610948600880546001019055565b6001600a600082825461095b9190611fc6565b9091555050336000908152600c60205260409020600190555050505050565b6007546001600160a01b031633146109a45760405162461bcd60e51b81526004016105fe90611ef5565b6007805460ff60a01b1916600160a01b179055565b6109c333826111e4565b6109df5760405162461bcd60e51b81526004016105fe90611f2a565b6107348383836112ca565b61073483838360405180602001604052806000815250610b57565b6000818152600260205260408120546001600160a01b0316806104fe5760405162461bcd60e51b815260206004820152602960248201527f4552433732313a206f776e657220717565727920666f72206e6f6e657869737460448201526832b73a103a37b5b2b760b91b60648201526084016105fe565b60006001600160a01b038216610ae75760405162461bcd60e51b815260206004820152602a60248201527f4552433732313a2062616c616e636520717565727920666f7220746865207a65604482015269726f206164647265737360b01b60648201526084016105fe565b506001600160a01b031660009081526003602052604090205490565b6007546001600160a01b03163314610b2d5760405162461bcd60e51b81526004016105fe90611ef5565b610b37600061146a565b565b60606001805461051390612009565b610b533383836114bc565b5050565b610b6133836111e4565b610b7d5760405162461bcd60e51b81526004016105fe90611f2a565b610b898484848461158b565b50505050565b6060610b9a82610de3565b610c005760405162461bcd60e51b815260206004820152603160248201527f45524337323155524953746f726167653a2055524920717565727920666f72206044820152703737b732bc34b9ba32b73a103a37b5b2b760791b60648201526084016105fe565b60008281526006602052604081208054610c1990612009565b80601f0160208091040260200160405190810160405280929190818152602001828054610c4590612009565b8015610c925780601f10610c6757610100808354040283529160200191610c92565b820191906000526020600020905b815481529060010190602001808311610c7557829003601f168201915b505050505090506000610cb060408051602081019091526000815290565b9050805160001415610cc3575092915050565b815115610cf5578082604051602001610cdd929190611c41565b60405160208183030381529060405292505050919050565b610cfe846115be565b949350505050565b6007546001600160a01b03163314610d305760405162461bcd60e51b81526004016105fe90611ef5565b6007805460ff60a01b19169055565b6007546001600160a01b03163314610d695760405162461bcd60e51b81526004016105fe90611ef5565b6001600160a01b038116610dce5760405162461bcd60e51b815260206004820152602660248201527f4f776e61626c653a206e6577206f776e657220697320746865207a65726f206160448201526564647265737360d01b60648201526084016105fe565b610dd78161146a565b50565b80546001019055565b6000908152600260205260409020546001600160a01b0316151590565b600081815260046020526040902080546001600160a01b0319166001600160a01b0384169081179091558190610e3582610a05565b6001600160a01b03167f8c5be1e5ebec7d5bd14f71427d1e84f3dd0314c0f7b2291e5b200ac8c7c3b92560405160405180910390a45050565b606081610e925750506040805180820190915260018152600360fc1b602082015290565b8160005b8115610ebc5780610ea681612044565b9150610eb59050600a83611f93565b9150610e96565b60008167ffffffffffffffff811115610ee557634e487b7160e01b600052604160045260246000fd5b6040519080825280601f01601f191660200182016040528015610f0f576020820181803683370190505b5090505b8415610cfe57610f24600183611fc6565b9150610f31600a8661205f565b610f3c906030611f7b565b60f81b818381518110610f5f57634e487b7160e01b600052603260045260246000fd5b60200101906001600160f81b031916908160001a905350610f81600a86611f93565b9450610f13565b805160609080610fa8575050604080516020810190915260008152919050565b60006003610fb7836002611f7b565b610fc19190611f93565b610fcc906004611fa7565b90506000610fdb826020611f7b565b67ffffffffffffffff81111561100157634e487b7160e01b600052604160045260246000fd5b6040519080825280601f01601f19166020018201604052801561102b576020820181803683370190505b5090506000604051806060016040528060408152602001612117604091399050600181016020830160005b868110156110b7576003818a01810151603f601282901c8116860151600c83901c8216870151600684901c831688015192909316870151600891821b60ff94851601821b92841692909201901b91160160e01b835260049092019101611056565b5060038606600181146110d157600281146110e2576110ee565b613d3d60f01b6001198301526110ee565b603d60f81b6000198301525b505050918152949350505050565b610dd7816040516024016111109190611e90565b60408051601f198184030181529190526020810180516001600160e01b031663104c13eb60e21b179052611696565b610b538282604051806020016040528060008152506116b7565b61116282610de3565b6111c55760405162461bcd60e51b815260206004820152602e60248201527f45524337323155524953746f726167653a2055524920736574206f66206e6f6e60448201526d32bc34b9ba32b73a103a37b5b2b760911b60648201526084016105fe565b6000828152600660209081526040909120825161073492840190611951565b60006111ef82610de3565b6112505760405162461bcd60e51b815260206004820152602c60248201527f4552433732313a206f70657261746f7220717565727920666f72206e6f6e657860448201526b34b9ba32b73a103a37b5b2b760a11b60648201526084016105fe565b600061125b83610a05565b9050806001600160a01b0316846001600160a01b031614806112965750836001600160a01b031661128b84610596565b6001600160a01b0316145b80610cfe57506001600160a01b0380821660009081526005602090815260408083209388168352929052205460ff16610cfe565b826001600160a01b03166112dd82610a05565b6001600160a01b0316146113455760405162461bcd60e51b815260206004820152602960248201527f4552433732313a207472616e73666572206f6620746f6b656e2074686174206960448201526839903737ba1037bbb760b91b60648201526084016105fe565b6001600160a01b0382166113a75760405162461bcd60e51b8152602060048201526024808201527f4552433732313a207472616e7366657220746f20746865207a65726f206164646044820152637265737360e01b60648201526084016105fe565b6113b2600082610e00565b6001600160a01b03831660009081526003602052604081208054600192906113db908490611fc6565b90915550506001600160a01b0382166000908152600360205260408120805460019290611409908490611f7b565b909155505060008181526002602052604080822080546001600160a01b0319166001600160a01b0386811691821790925591518493918716917fddf252ad1be2c89b69c2b068fc378daa952ba7f163c4a11628f55a4df523b3ef91a4505050565b600780546001600160a01b038381166001600160a01b0319831681179093556040519116919082907f8be0079c531659141344cd1fd0a4f28419497f9722a3daafe3b4186f6b6457e090600090a35050565b816001600160a01b0316836001600160a01b0316141561151e5760405162461bcd60e51b815260206004820152601960248201527f4552433732313a20617070726f766520746f2063616c6c65720000000000000060448201526064016105fe565b6001600160a01b03838116600081815260056020908152604080832094871680845294825291829020805460ff191686151590811790915591519182527f17307eab39ab6107e8899845ad3d59bd9653f200f220920489ca2b5937696c31910160405180910390a3505050565b6115968484846112ca565b6115a2848484846116ea565b610b895760405162461bcd60e51b81526004016105fe90611ea3565b60606115c982610de3565b61162d5760405162461bcd60e51b815260206004820152602f60248201527f4552433732314d657461646174613a2055524920717565727920666f72206e6f60448201526e3732bc34b9ba32b73a103a37b5b2b760891b60648201526084016105fe565b600061164460408051602081019091526000815290565b90506000815111611664576040518060200160405280600081525061168f565b8061166e84610e6e565b60405160200161167f929190611c41565b6040516020818303038152906040525b9392505050565b80516a636f6e736f6c652e6c6f67602083016000808483855afa5050505050565b6116c183836117f7565b6116ce60008484846116ea565b6107345760405162461bcd60e51b81526004016105fe90611ea3565b60006001600160a01b0384163b156117ec57604051630a85bd0160e11b81526001600160a01b0385169063150b7a029061172e903390899088908890600401611e5d565b602060405180830381600087803b15801561174857600080fd5b505af1925050508015611778575060408051601f3d908101601f1916820190925261177591810190611be1565b60015b6117d2573d8080156117a6576040519150601f19603f3d011682016040523d82523d6000602084013e6117ab565b606091505b5080516117ca5760405162461bcd60e51b81526004016105fe90611ea3565b805181602001fd5b6001600160e01b031916630a85bd0160e11b149050610cfe565b506001949350505050565b6001600160a01b03821661184d5760405162461bcd60e51b815260206004820181905260248201527f4552433732313a206d696e7420746f20746865207a65726f206164647265737360448201526064016105fe565b61185681610de3565b156118a35760405162461bcd60e51b815260206004820152601c60248201527f4552433732313a20746f6b656e20616c7265616479206d696e7465640000000060448201526064016105fe565b6001600160a01b03821660009081526003602052604081208054600192906118cc908490611f7b565b909155505060008181526002602052604080822080546001600160a01b0319166001600160a01b03861690811790915590518392907fddf252ad1be2c89b69c2b068fc378daa952ba7f163c4a11628f55a4df523b3ef908290a45050565b60405180606001604052806003905b60608152602001906001900390816119395790505090565b82805461195d90612009565b90600052602060002090601f01602090048101928261197f57600085556119c5565b82601f1061199857805160ff19168380011785556119c5565b828001600101855582156119c5579182015b828111156119c55782518255916020019190600101906119aa565b506119d19291506119d5565b5090565b5b808211156119d157600081556001016119d6565b80356001600160a01b0381168114611a0157600080fd5b919050565b600060208284031215611a17578081fd5b61168f826119ea565b60008060408385031215611a32578081fd5b611a3b836119ea565b9150611a49602084016119ea565b90509250929050565b600080600060608486031215611a66578081fd5b611a6f846119ea565b9250611a7d602085016119ea565b9150604084013590509250925092565b60008060008060808587031215611aa2578081fd5b611aab856119ea565b9350611ab9602086016119ea565b925060408501359150606085013567ffffffffffffffff80821115611adc578283fd5b818701915087601f830112611aef578283fd5b813581811115611b0157611b0161209f565b604051601f8201601f19908116603f01168101908382118183101715611b2957611b2961209f565b816040528281528a6020848701011115611b41578586fd5b82602086016020830137918201602001949094529598949750929550505050565b60008060408385031215611b74578182fd5b611b7d836119ea565b915060208301358015158114611b91578182fd5b809150509250929050565b60008060408385031215611bae578182fd5b611bb7836119ea565b946020939093013593505050565b600060208284031215611bd6578081fd5b813561168f816120b5565b600060208284031215611bf2578081fd5b815161168f816120b5565b600060208284031215611c0e578081fd5b5035919050565b60008151808452611c2d816020860160208601611fdd565b601f01601f19169290920160200192915050565b60008351611c53818460208801611fdd565b835190830190611c67818360208801611fdd565b01949350505050565b60008451611c82818460208901611fdd565b845190830190611c96818360208901611fdd565b8451910190611ca9818360208801611fdd565b0195945050505050565b707b20226e616d65223a2022454e4654202360781b81528251600090611ce0816011850160208801611fdd565b7f222c20226465736372697074696f6e223a202241204e46542d706f7765726564601191840191820152730103a34b1b5b2ba34b7339039bcb9ba32b69116160651b60318201527f22747261697473223a205b7b202274726169745f74797065223a20224368656360458201527f6b656420496e222c202276616c7565223a202266616c736522207d2c207b202260658201527f74726169745f74797065223a2022507572636861736564222c202276616c756560858201526d0111d10113a393ab291103eae96160951b60a58201527f22696d616765223a2022646174613a696d6167652f7376672b786d6c3b62617360b382015263194d8d0b60e21b60d38201528351611df68160d7840160208801611fdd565b611e0e60d7828401016222207d60e81b815260030190565b9695505050505050565b7f646174613a6170706c69636174696f6e2f6a736f6e3b6261736536342c000000815260008251611e5081601d850160208701611fdd565b91909101601d0192915050565b6001600160a01b0385811682528416602082015260408101839052608060608201819052600090611e0e90830184611c15565b60208152600061168f6020830184611c15565b60208082526032908201527f4552433732313a207472616e7366657220746f206e6f6e20455243373231526560408201527131b2b4bb32b91034b6b83632b6b2b73a32b960711b606082015260800190565b6020808252818101527f4f776e61626c653a2063616c6c6572206973206e6f7420746865206f776e6572604082015260600190565b60208082526031908201527f4552433732313a207472616e736665722063616c6c6572206973206e6f74206f6040820152701ddb995c881b9bdc88185c1c1c9bdd9959607a1b606082015260800190565b60008219821115611f8e57611f8e612073565b500190565b600082611fa257611fa2612089565b500490565b6000816000190483118215151615611fc157611fc1612073565b500290565b600082821015611fd857611fd8612073565b500390565b60005b83811015611ff8578181015183820152602001611fe0565b83811115610b895750506000910152565b600181811c9082168061201d57607f821691505b6020821081141561203e57634e487b7160e01b600052602260045260246000fd5b50919050565b600060001982141561205857612058612073565b5060010190565b60008261206e5761206e612089565b500690565b634e487b7160e01b600052601160045260246000fd5b634e487b7160e01b600052601260045260246000fd5b634e487b7160e01b600052604160045260246000fd5b6001600160e01b031981168114610dd757600080fdfe3c7376672076696577426f783d2230203020313030203130302220786d6c6e733d22687474703a2f2f7777772e77332e6f72672f323030302f737667223e3c7465787420793d223530223e4142434445464748494a4b4c4d4e4f505152535455565758595a6162636465666768696a6b6c6d6e6f707172737475767778797a303132333435363738392b2fa2646970667358221220a3df5e595a16f98f23d630e3832e72727117af60a165b9f5d98efd7c0e2e604964736f6c63430008040033",
    "linkReferences": {},
    "deployedLinkReferences": {}
}