{
    "_format": "hh-sol-artifact-1",
    "contractName": "NFTicks",
    "sourceName": "contracts/NFTicks.sol",
    "abi": [
        {
            "inputs": [],
            "stateMutability": "payable",
            "type": "constructor"
        },
        {
            "anonymous": false,
            "inputs": [
                {
                    "indexed": true,
                    "internalType": "address",
                    "name": "owner",
                    "type": "address"
                },
                {
                    "indexed": true,
                    "internalType": "address",
                    "name": "approved",
                    "type": "address"
                },
                {
                    "indexed": true,
                    "internalType": "uint256",
                    "name": "tokenId",
                    "type": "uint256"
                }
            ],
            "name": "Approval",
            "type": "event"
        },
        {
            "anonymous": false,
            "inputs": [
                {
                    "indexed": true,
                    "internalType": "address",
                    "name": "owner",
                    "type": "address"
                },
                {
                    "indexed": true,
                    "internalType": "address",
                    "name": "operator",
                    "type": "address"
                },
                {
                    "indexed": false,
                    "internalType": "bool",
                    "name": "approved",
                    "type": "bool"
                }
            ],
            "name": "ApprovalForAll",
            "type": "event"
        },
        {
            "anonymous": false,
            "inputs": [
                {
                    "indexed": true,
                    "internalType": "address",
                    "name": "previousOwner",
                    "type": "address"
                },
                {
                    "indexed": true,
                    "internalType": "address",
                    "name": "newOwner",
                    "type": "address"
                }
            ],
            "name": "OwnershipTransferred",
            "type": "event"
        },
        {
            "anonymous": false,
            "inputs": [
                {
                    "indexed": true,
                    "internalType": "address",
                    "name": "from",
                    "type": "address"
                },
                {
                    "indexed": true,
                    "internalType": "address",
                    "name": "to",
                    "type": "address"
                },
                {
                    "indexed": true,
                    "internalType": "uint256",
                    "name": "tokenId",
                    "type": "uint256"
                }
            ],
            "name": "Transfer",
            "type": "event"
        },
        {
            "stateMutability": "payable",
            "type": "fallback"
        },
        {
            "inputs": [
                {
                    "internalType": "address",
                    "name": "to",
                    "type": "address"
                },
                {
                    "internalType": "uint256",
                    "name": "tokenId",
                    "type": "uint256"
                }
            ],
            "name": "approve",
            "outputs": [],
            "stateMutability": "nonpayable",
            "type": "function"
        },
        {
            "inputs": [],
            "name": "availableTickets",
            "outputs": [
                {
                    "internalType": "uint256",
                    "name": "",
                    "type": "uint256"
                }
            ],
            "stateMutability": "view",
            "type": "function"
        },
        {
            "inputs": [
                {
                    "internalType": "address",
                    "name": "owner",
                    "type": "address"
                }
            ],
            "name": "balanceOf",
            "outputs": [
                {
                    "internalType": "uint256",
                    "name": "",
                    "type": "uint256"
                }
            ],
            "stateMutability": "view",
            "type": "function"
        },
        {
            "inputs": [
                {
                    "internalType": "address",
                    "name": "_address",
                    "type": "address"
                }
            ],
            "name": "checkIn",
            "outputs": [],
            "stateMutability": "nonpayable",
            "type": "function"
        },
        {
            "inputs": [
                {
                    "internalType": "address",
                    "name": "",
                    "type": "address"
                }
            ],
            "name": "checkIns",
            "outputs": [
                {
                    "internalType": "bool",
                    "name": "",
                    "type": "bool"
                }
            ],
            "stateMutability": "view",
            "type": "function"
        },
        {
            "inputs": [],
            "name": "closeSale",
            "outputs": [],
            "stateMutability": "nonpayable",
            "type": "function"
        },
        {
            "inputs": [
                {
                    "internalType": "address",
                    "name": "_address",
                    "type": "address"
                }
            ],
            "name": "confirmOwnership",
            "outputs": [
                {
                    "internalType": "bool",
                    "name": "",
                    "type": "bool"
                }
            ],
            "stateMutability": "view",
            "type": "function"
        },
        {
            "inputs": [
                {
                    "internalType": "uint256",
                    "name": "tokenId",
                    "type": "uint256"
                }
            ],
            "name": "getApproved",
            "outputs": [
                {
                    "internalType": "address",
                    "name": "",
                    "type": "address"
                }
            ],
            "stateMutability": "view",
            "type": "function"
        },
        {
            "inputs": [],
            "name": "getAvailableTickets",
            "outputs": [
                {
                    "internalType": "uint256",
                    "name": "",
                    "type": "uint256"
                }
            ],
            "stateMutability": "view",
            "type": "function"
        },
        {
            "inputs": [],
            "name": "getTotalTickets",
            "outputs": [
                {
                    "internalType": "uint256",
                    "name": "",
                    "type": "uint256"
                }
            ],
            "stateMutability": "view",
            "type": "function"
        },
        {
            "inputs": [
                {
                    "internalType": "address",
                    "name": "",
                    "type": "address"
                },
                {
                    "internalType": "uint256",
                    "name": "",
                    "type": "uint256"
                }
            ],
            "name": "holderTokendIds",
            "outputs": [
                {
                    "internalType": "uint256",
                    "name": "",
                    "type": "uint256"
                }
            ],
            "stateMutability": "view",
            "type": "function"
        },
        {
            "inputs": [
                {
                    "internalType": "address",
                    "name": "owner",
                    "type": "address"
                },
                {
                    "internalType": "address",
                    "name": "operator",
                    "type": "address"
                }
            ],
            "name": "isApprovedForAll",
            "outputs": [
                {
                    "internalType": "bool",
                    "name": "",
                    "type": "bool"
                }
            ],
            "stateMutability": "view",
            "type": "function"
        },
        {
            "inputs": [],
            "name": "mint",
            "outputs": [],
            "stateMutability": "payable",
            "type": "function"
        },
        {
            "inputs": [],
            "name": "mintPrice",
            "outputs": [
                {
                    "internalType": "uint256",
                    "name": "",
                    "type": "uint256"
                }
            ],
            "stateMutability": "view",
            "type": "function"
        },
        {
            "inputs": [],
            "name": "name",
            "outputs": [
                {
                    "internalType": "string",
                    "name": "",
                    "type": "string"
                }
            ],
            "stateMutability": "view",
            "type": "function"
        },
        {
            "inputs": [],
            "name": "openSale",
            "outputs": [],
            "stateMutability": "nonpayable",
            "type": "function"
        },
        {
            "inputs": [],
            "name": "owner",
            "outputs": [
                {
                    "internalType": "address",
                    "name": "",
                    "type": "address"
                }
            ],
            "stateMutability": "view",
            "type": "function"
        },
        {
            "inputs": [
                {
                    "internalType": "uint256",
                    "name": "tokenId",
                    "type": "uint256"
                }
            ],
            "name": "ownerOf",
            "outputs": [
                {
                    "internalType": "address",
                    "name": "",
                    "type": "address"
                }
            ],
            "stateMutability": "view",
            "type": "function"
        },
        {
            "inputs": [],
            "name": "renounceOwnership",
            "outputs": [],
            "stateMutability": "nonpayable",
            "type": "function"
        },
        {
            "inputs": [
                {
                    "internalType": "address",
                    "name": "from",
                    "type": "address"
                },
                {
                    "internalType": "address",
                    "name": "to",
                    "type": "address"
                },
                {
                    "internalType": "uint256",
                    "name": "tokenId",
                    "type": "uint256"
                }
            ],
            "name": "safeTransferFrom",
            "outputs": [],
            "stateMutability": "nonpayable",
            "type": "function"
        },
        {
            "inputs": [
                {
                    "internalType": "address",
                    "name": "from",
                    "type": "address"
                },
                {
                    "internalType": "address",
                    "name": "to",
                    "type": "address"
                },
                {
                    "internalType": "uint256",
                    "name": "tokenId",
                    "type": "uint256"
                },
                {
                    "internalType": "bytes",
                    "name": "_data",
                    "type": "bytes"
                }
            ],
            "name": "safeTransferFrom",
            "outputs": [],
            "stateMutability": "nonpayable",
            "type": "function"
        },
        {
            "inputs": [],
            "name": "saleIsActive",
            "outputs": [
                {
                    "internalType": "bool",
                    "name": "",
                    "type": "bool"
                }
            ],
            "stateMutability": "view",
            "type": "function"
        },
        {
            "inputs": [
                {
                    "internalType": "address",
                    "name": "operator",
                    "type": "address"
                },
                {
                    "internalType": "bool",
                    "name": "approved",
                    "type": "bool"
                }
            ],
            "name": "setApprovalForAll",
            "outputs": [],
            "stateMutability": "nonpayable",
            "type": "function"
        },
        {
            "inputs": [
                {
                    "internalType": "bytes4",
                    "name": "interfaceId",
                    "type": "bytes4"
                }
            ],
            "name": "supportsInterface",
            "outputs": [
                {
                    "internalType": "bool",
                    "name": "",
                    "type": "bool"
                }
            ],
            "stateMutability": "view",
            "type": "function"
        },
        {
            "inputs": [],
            "name": "symbol",
            "outputs": [
                {
                    "internalType": "string",
                    "name": "",
                    "type": "string"
                }
            ],
            "stateMutability": "view",
            "type": "function"
        },
        {
            "inputs": [
                {
                    "internalType": "uint256",
                    "name": "tokenId",
                    "type": "uint256"
                }
            ],
            "name": "tokenURI",
            "outputs": [
                {
                    "internalType": "string",
                    "name": "",
                    "type": "string"
                }
            ],
            "stateMutability": "view",
            "type": "function"
        },
        {
            "inputs": [],
            "name": "totalTickets",
            "outputs": [
                {
                    "internalType": "uint256",
                    "name": "",
                    "type": "uint256"
                }
            ],
            "stateMutability": "view",
            "type": "function"
        },
        {
            "inputs": [
                {
                    "internalType": "address",
                    "name": "from",
                    "type": "address"
                },
                {
                    "internalType": "address",
                    "name": "to",
                    "type": "address"
                },
                {
                    "internalType": "uint256",
                    "name": "tokenId",
                    "type": "uint256"
                }
            ],
            "name": "transferFrom",
            "outputs": [],
            "stateMutability": "nonpayable",
            "type": "function"
        },
        {
            "inputs": [
                {
                    "internalType": "address",
                    "name": "newOwner",
                    "type": "address"
                }
            ],
            "name": "transferOwnership",
            "outputs": [],
            "stateMutability": "nonpayable",
            "type": "function"
        },
        {
            "stateMutability": "payable",
            "type": "receive"
        }
    ],
    "bytecode": "0x603c6009819055600a55661c6bf526340000600b5560066080818152654576656e747360d01b60a0908152610100604052600460c0908152631153919560e21b60e0529192620000529160009162000101565b5080516200006890600190602084019062000101565b505050620000856200007f620000a260201b60201c565b620000a6565b6200009c6008620000f860201b62000ee51760201c565b620001e4565b3390565b600780546001600160a01b038381166001600160a01b0319831681179093556040519116919082907f8be0079c531659141344cd1fd0a4f28419497f9722a3daafe3b4186f6b6457e090600090a35050565b80546001019055565b8280546200010f90620001a7565b90600052602060002090601f0160209004810192826200013357600085556200017e565b82601f106200014e57805160ff19168380011785556200017e565b828001600101855582156200017e579182015b828111156200017e57825182559160200191906001019062000161565b506200018c92915062000190565b5090565b5b808211156200018c576000815560010162000191565b600181811c90821680620001bc57607f821691505b60208210811415620001de57634e487b7160e01b600052602260045260246000fd5b50919050565b61237380620001f46000396000f3fe6080604052600436106101ae5760003560e01c806370a08231116100eb578063c87b56dd1161008f578063e985e9c511610061578063e985e9c5146104c9578063eb8d244414610512578063ee55efee14610533578063f2fde38b1461054857005b8063c87b56dd14610453578063d9a59e3314610473578063dd11247e14610493578063e55cc7e2146104a957005b80638da5cb5b116100c85780638da5cb5b146103e057806395d89b41146103fe578063a22cb46514610413578063b88d4fde1461043357005b806370a0823114610373578063715018a61461039357806380f2abe3146103a857005b80631acc9b621161015257806342842e0e1161012f57806342842e0e146103085780635a8acacc146103285780636352211e1461033d5780636817c76c1461035d57005b80631acc9b62146102a257806323b872dd146102d25780633cfa7e01146102f257005b8063081812fc1161018b578063081812fc1461022d578063095ea7b3146102655780631249c58b14610285578063167ff46f1461028d57005b806301ffc9a7146101b757806306e8337f146101ec57806306fdde031461020b57005b366101b557005b005b3480156101c357600080fd5b506101d76101d2366004611ca9565b610568565b60405190151581526020015b60405180910390f35b3480156101f857600080fd5b506009545b6040519081526020016101e3565b34801561021757600080fd5b506102206105ba565b6040516101e391906120c2565b34801561023957600080fd5b5061024d610248366004611ce1565b61064c565b6040516001600160a01b0390911681526020016101e3565b34801561027157600080fd5b506101b5610280366004611c80565b6106d9565b6101b56107ef565b34801561029957600080fd5b506101b56109ac565b3480156102ae57600080fd5b506101d76102bd366004611aea565b600d6020526000908152604090205460ff1681565b3480156102de57600080fd5b506101b56102ed366004611b36565b6109eb565b3480156102fe57600080fd5b506101fd600a5481565b34801561031457600080fd5b506101b5610323366004611b36565b610a1c565b34801561033457600080fd5b50600a546101fd565b34801561034957600080fd5b5061024d610358366004611ce1565b610a37565b34801561036957600080fd5b506101fd600b5481565b34801561037f57600080fd5b506101fd61038e366004611aea565b610aae565b34801561039f57600080fd5b506101b5610b35565b3480156103b457600080fd5b506101d76103c3366004611aea565b6001600160a01b03166000908152600c6020526040902054151590565b3480156103ec57600080fd5b506007546001600160a01b031661024d565b34801561040a57600080fd5b50610220610b6b565b34801561041f57600080fd5b506101b561042e366004611c46565b610b7a565b34801561043f57600080fd5b506101b561044e366004611b71565b610b89565b34801561045f57600080fd5b5061022061046e366004611ce1565b610bc1565b34801561047f57600080fd5b506101b561048e366004611aea565b610d38565b34801561049f57600080fd5b506101fd60095481565b3480156104b557600080fd5b506101fd6104c4366004611c80565b610de0565b3480156104d557600080fd5b506101d76104e4366004611b04565b6001600160a01b03918216600090815260056020908152604080832093909416825291909152205460ff1690565b34801561051e57600080fd5b506007546101d790600160a01b900460ff1681565b34801561053f57600080fd5b506101b5610e11565b34801561055457600080fd5b506101b5610563366004611aea565b610e4a565b60006001600160e01b031982166380ac58cd60e01b148061059957506001600160e01b03198216635b5e139f60e01b145b806105b457506301ffc9a760e01b6001600160e01b03198316145b92915050565b6060600080546105c99061223b565b80601f01602080910402602001604051908101604052809291908181526020018280546105f59061223b565b80156106425780601f1061061757610100808354040283529160200191610642565b820191906000526020600020905b81548152906001019060200180831161062557829003601f168201915b5050505050905090565b600061065782610eee565b6106bd5760405162461bcd60e51b815260206004820152602c60248201527f4552433732313a20617070726f76656420717565727920666f72206e6f6e657860448201526b34b9ba32b73a103a37b5b2b760a11b60648201526084015b60405180910390fd5b506000908152600460205260409020546001600160a01b031690565b60006106e482610a37565b9050806001600160a01b0316836001600160a01b031614156107525760405162461bcd60e51b815260206004820152602160248201527f4552433732313a20617070726f76616c20746f2063757272656e74206f776e656044820152603960f91b60648201526084016106b4565b336001600160a01b038216148061076e575061076e81336104e4565b6107e05760405162461bcd60e51b815260206004820152603860248201527f4552433732313a20617070726f76652063616c6c6572206973206e6f74206f7760448201527f6e6572206e6f7220617070726f76656420666f7220616c6c000000000000000060648201526084016106b4565b6107ea8383610f0b565b505050565b6000600a54116108345760405162461bcd60e51b815260206004820152601060248201526f151a58dad95d1cc814dbdb190813dd5d60821b60448201526064016106b4565b600b5434101561087b5760405162461bcd60e51b8152602060048201526012602482015271496e73756666696369656e742046756e647360701b60448201526064016106b4565b600754600160a01b900460ff166108cd5760405162461bcd60e51b8152602060048201526016602482015275151a58dad95d0814d85b195cc81a5cc810db1bdcd95960521b60448201526064016106b4565b60006109076108e36108de60085490565b610f79565b6040516020016108f39190611ee2565b604051602081830303815290604052611093565b905060008160405160200161091c9190612040565b604051602081830303815290604052905061093681611207565b6109483361094360085490565b61124a565b61095a61095460085490565b82611264565b610968600880546001019055565b6001600a600082825461097b91906121f8565b9091555050336000908152600c60205260409020600854815460018101835560009283526020909220909101555050565b6007546001600160a01b031633146109d65760405162461bcd60e51b81526004016106b490612127565b6007805460ff60a01b1916600160a01b179055565b6109f533826112ef565b610a115760405162461bcd60e51b81526004016106b49061215c565b6107ea8383836113d5565b6107ea83838360405180602001604052806000815250610b89565b6000818152600260205260408120546001600160a01b0316806105b45760405162461bcd60e51b815260206004820152602960248201527f4552433732313a206f776e657220717565727920666f72206e6f6e657869737460448201526832b73a103a37b5b2b760b91b60648201526084016106b4565b60006001600160a01b038216610b195760405162461bcd60e51b815260206004820152602a60248201527f4552433732313a2062616c616e636520717565727920666f7220746865207a65604482015269726f206164647265737360b01b60648201526084016106b4565b506001600160a01b031660009081526003602052604090205490565b6007546001600160a01b03163314610b5f5760405162461bcd60e51b81526004016106b490612127565b610b696000611575565b565b6060600180546105c99061223b565b610b853383836115c7565b5050565b610b9333836112ef565b610baf5760405162461bcd60e51b81526004016106b49061215c565b610bbb84848484611696565b50505050565b6060610bcc82610eee565b610c325760405162461bcd60e51b815260206004820152603160248201527f45524337323155524953746f726167653a2055524920717565727920666f72206044820152703737b732bc34b9ba32b73a103a37b5b2b760791b60648201526084016106b4565b60008281526006602052604081208054610c4b9061223b565b80601f0160208091040260200160405190810160405280929190818152602001828054610c779061223b565b8015610cc45780601f10610c9957610100808354040283529160200191610cc4565b820191906000526020600020905b815481529060010190602001808311610ca757829003601f168201915b505050505090506000610ce260408051602081019091526000815290565b9050805160001415610cf5575092915050565b815115610d27578082604051602001610d0f929190611d25565b60405160208183030381529060405292505050919050565b610d30846116c9565b949350505050565b6001600160a01b0381166000908152600d60209081526040808320805460ff19166001179055600c909152812080548290610d8357634e487b7160e01b600052603260045260246000fd5b906000526020600020015490506000610dae610d9e83610f79565b6040516020016108f39190611d54565b9050600081604051602001610dc39190612040565b6040516020818303038152906040529050610bbb61095460085490565b600c6020528160005260406000208181548110610dfc57600080fd5b90600052602060002001600091509150505481565b6007546001600160a01b03163314610e3b5760405162461bcd60e51b81526004016106b490612127565b6007805460ff60a01b19169055565b6007546001600160a01b03163314610e745760405162461bcd60e51b81526004016106b490612127565b6001600160a01b038116610ed95760405162461bcd60e51b815260206004820152602660248201527f4f776e61626c653a206e6577206f776e657220697320746865207a65726f206160448201526564647265737360d01b60648201526084016106b4565b610ee281611575565b50565b80546001019055565b6000908152600260205260409020546001600160a01b0316151590565b600081815260046020526040902080546001600160a01b0319166001600160a01b0384169081179091558190610f4082610a37565b6001600160a01b03167f8c5be1e5ebec7d5bd14f71427d1e84f3dd0314c0f7b2291e5b200ac8c7c3b92560405160405180910390a45050565b606081610f9d5750506040805180820190915260018152600360fc1b602082015290565b8160005b8115610fc75780610fb181612276565b9150610fc09050600a836121c5565b9150610fa1565b60008167ffffffffffffffff811115610ff057634e487b7160e01b600052604160045260246000fd5b6040519080825280601f01601f19166020018201604052801561101a576020820181803683370190505b5090505b8415610d305761102f6001836121f8565b915061103c600a86612291565b6110479060306121ad565b60f81b81838151811061106a57634e487b7160e01b600052603260045260246000fd5b60200101906001600160f81b031916908160001a90535061108c600a866121c5565b945061101e565b8051606090806110b3575050604080516020810190915260008152919050565b600060036110c28360026121ad565b6110cc91906121c5565b6110d79060046121d9565b905060006110e68260206121ad565b67ffffffffffffffff81111561110c57634e487b7160e01b600052604160045260246000fd5b6040519080825280601f01601f191660200182016040528015611136576020820181803683370190505b50905060006040518060600160405280604081526020016122fe604091399050600181016020830160005b868110156111c2576003818a01810151603f601282901c8116860151600c83901c8216870151600684901c831688015192909316870151600891821b60ff94851601821b92841692909201901b91160160e01b835260049092019101611161565b5060038606600181146111dc57600281146111ed576111f9565b613d3d60f01b6001198301526111f9565b603d60f81b6000198301525b505050918152949350505050565b610ee28160405160240161121b91906120c2565b60408051601f198184030181529190526020810180516001600160e01b031663104c13eb60e21b1790526117a1565b610b858282604051806020016040528060008152506117c2565b61126d82610eee565b6112d05760405162461bcd60e51b815260206004820152602e60248201527f45524337323155524953746f726167653a2055524920736574206f66206e6f6e60448201526d32bc34b9ba32b73a103a37b5b2b760911b60648201526084016106b4565b600082815260066020908152604090912082516107ea92840190611a35565b60006112fa82610eee565b61135b5760405162461bcd60e51b815260206004820152602c60248201527f4552433732313a206f70657261746f7220717565727920666f72206e6f6e657860448201526b34b9ba32b73a103a37b5b2b760a11b60648201526084016106b4565b600061136683610a37565b9050806001600160a01b0316846001600160a01b031614806113a15750836001600160a01b03166113968461064c565b6001600160a01b0316145b80610d3057506001600160a01b0380821660009081526005602090815260408083209388168352929052205460ff16610d30565b826001600160a01b03166113e882610a37565b6001600160a01b0316146114505760405162461bcd60e51b815260206004820152602960248201527f4552433732313a207472616e73666572206f6620746f6b656e2074686174206960448201526839903737ba1037bbb760b91b60648201526084016106b4565b6001600160a01b0382166114b25760405162461bcd60e51b8152602060048201526024808201527f4552433732313a207472616e7366657220746f20746865207a65726f206164646044820152637265737360e01b60648201526084016106b4565b6114bd600082610f0b565b6001600160a01b03831660009081526003602052604081208054600192906114e69084906121f8565b90915550506001600160a01b03821660009081526003602052604081208054600192906115149084906121ad565b909155505060008181526002602052604080822080546001600160a01b0319166001600160a01b0386811691821790925591518493918716917fddf252ad1be2c89b69c2b068fc378daa952ba7f163c4a11628f55a4df523b3ef91a4505050565b600780546001600160a01b038381166001600160a01b0319831681179093556040519116919082907f8be0079c531659141344cd1fd0a4f28419497f9722a3daafe3b4186f6b6457e090600090a35050565b816001600160a01b0316836001600160a01b031614156116295760405162461bcd60e51b815260206004820152601960248201527f4552433732313a20617070726f766520746f2063616c6c65720000000000000060448201526064016106b4565b6001600160a01b03838116600081815260056020908152604080832094871680845294825291829020805460ff191686151590811790915591519182527f17307eab39ab6107e8899845ad3d59bd9653f200f220920489ca2b5937696c31910160405180910390a3505050565b6116a18484846113d5565b6116ad848484846117f5565b610bbb5760405162461bcd60e51b81526004016106b4906120d5565b60606116d482610eee565b6117385760405162461bcd60e51b815260206004820152602f60248201527f4552433732314d657461646174613a2055524920717565727920666f72206e6f60448201526e3732bc34b9ba32b73a103a37b5b2b760891b60648201526084016106b4565b600061174f60408051602081019091526000815290565b9050600081511161176f576040518060200160405280600081525061179a565b8061177984610f79565b60405160200161178a929190611d25565b6040516020818303038152906040525b9392505050565b80516a636f6e736f6c652e6c6f67602083016000808483855afa5050505050565b6117cc8383611902565b6117d960008484846117f5565b6107ea5760405162461bcd60e51b81526004016106b4906120d5565b60006001600160a01b0384163b156118f757604051630a85bd0160e11b81526001600160a01b0385169063150b7a0290611839903390899088908890600401612085565b602060405180830381600087803b15801561185357600080fd5b505af1925050508015611883575060408051601f3d908101601f1916820190925261188091810190611cc5565b60015b6118dd573d8080156118b1576040519150601f19603f3d011682016040523d82523d6000602084013e6118b6565b606091505b5080516118d55760405162461bcd60e51b81526004016106b4906120d5565b805181602001fd5b6001600160e01b031916630a85bd0160e11b149050610d30565b506001949350505050565b6001600160a01b0382166119585760405162461bcd60e51b815260206004820181905260248201527f4552433732313a206d696e7420746f20746865207a65726f206164647265737360448201526064016106b4565b61196181610eee565b156119ae5760405162461bcd60e51b815260206004820152601c60248201527f4552433732313a20746f6b656e20616c7265616479206d696e7465640000000060448201526064016106b4565b6001600160a01b03821660009081526003602052604081208054600192906119d79084906121ad565b909155505060008181526002602052604080822080546001600160a01b0319166001600160a01b03861690811790915590518392907fddf252ad1be2c89b69c2b068fc378daa952ba7f163c4a11628f55a4df523b3ef908290a45050565b828054611a419061223b565b90600052602060002090601f016020900481019282611a635760008555611aa9565b82601f10611a7c57805160ff1916838001178555611aa9565b82800160010185558215611aa9579182015b82811115611aa9578251825591602001919060010190611a8e565b50611ab5929150611ab9565b5090565b5b80821115611ab55760008155600101611aba565b80356001600160a01b0381168114611ae557600080fd5b919050565b600060208284031215611afb578081fd5b61179a82611ace565b60008060408385031215611b16578081fd5b611b1f83611ace565b9150611b2d60208401611ace565b90509250929050565b600080600060608486031215611b4a578081fd5b611b5384611ace565b9250611b6160208501611ace565b9150604084013590509250925092565b60008060008060808587031215611b86578081fd5b611b8f85611ace565b9350611b9d60208601611ace565b925060408501359150606085013567ffffffffffffffff80821115611bc0578283fd5b818701915087601f830112611bd3578283fd5b813581811115611be557611be56122d1565b604051601f8201601f19908116603f01168101908382118183101715611c0d57611c0d6122d1565b816040528281528a6020848701011115611c25578586fd5b82602086016020830137918201602001949094529598949750929550505050565b60008060408385031215611c58578182fd5b611c6183611ace565b915060208301358015158114611c75578182fd5b809150509250929050565b60008060408385031215611c92578182fd5b611c9b83611ace565b946020939093013593505050565b600060208284031215611cba578081fd5b813561179a816122e7565b600060208284031215611cd6578081fd5b815161179a816122e7565b600060208284031215611cf2578081fd5b5035919050565b60008151808452611d1181602086016020860161220f565b601f01601f19169290920160200192915050565b60008351611d3781846020880161220f565b835190830190611d4b81836020880161220f565b01949350505050565b707b20226e616d65223a2022454e4654202360781b81528151600090611d8181601185016020870161220f565b7f222c20226465736372697074696f6e223a202241204e46542d706f776572656460119390910192830152507f207469636b6574696e672073797374656d20666f72205765622033204272696460318201527f6765203230323220546f776e68616c6c206d65657474696e67222c200000000060518201527f22747261697473223a205b7b202274726169745f74797065223a202243686563606d8201527f6b656420496e222c202276616c7565223a20227472756522207d2c207b202274608d8201527f726169745f74797065223a2022507572636861736564222c202276616c75652260ad8201526c01d10113a393ab291103eae961609d1b60cd8201527f22696d616765223a2022697066733a2f2f516d6438464362723565694663725360da8201527f7a6a3350526f76473631745665757333484a7a54334234365858614a6d576a2260fa82015261207d60f01b61011a82015261011c01919050565b707b20226e616d65223a2022454e4654202360781b81528151600090611f0f81601185016020870161220f565b7f222c20226465736372697074696f6e223a202241204e46542d706f77657265646011939091019283015250730103a34b1b5b2ba34b7339039bcb9ba32b69116160651b60318201527f22747261697473223a205b7b202274726169745f74797065223a20224368656360458201527f6b656420496e222c202276616c7565223a202266616c736522207d2c207b202260658201527f74726169745f74797065223a2022507572636861736564222c202276616c756560858201526d0111d10113a393ab291103eae96160951b60a58201527f22696d616765223a2022697066733a2f2f516d557558714d764a636b4668666f60b38201527f45614c464d4566756d36726f7167726a5165646f52756974697a77336b77512260d382015261207d60f01b60f382015260f501919050565b7f646174613a6170706c69636174696f6e2f6a736f6e3b6261736536342c00000081526000825161207881601d85016020870161220f565b91909101601d0192915050565b6001600160a01b03858116825284166020820152604081018390526080606082018190526000906120b890830184611cf9565b9695505050505050565b60208152600061179a6020830184611cf9565b60208082526032908201527f4552433732313a207472616e7366657220746f206e6f6e20455243373231526560408201527131b2b4bb32b91034b6b83632b6b2b73a32b960711b606082015260800190565b6020808252818101527f4f776e61626c653a2063616c6c6572206973206e6f7420746865206f776e6572604082015260600190565b60208082526031908201527f4552433732313a207472616e736665722063616c6c6572206973206e6f74206f6040820152701ddb995c881b9bdc88185c1c1c9bdd9959607a1b606082015260800190565b600082198211156121c0576121c06122a5565b500190565b6000826121d4576121d46122bb565b500490565b60008160001904831182151516156121f3576121f36122a5565b500290565b60008282101561220a5761220a6122a5565b500390565b60005b8381101561222a578181015183820152602001612212565b83811115610bbb5750506000910152565b600181811c9082168061224f57607f821691505b6020821081141561227057634e487b7160e01b600052602260045260246000fd5b50919050565b600060001982141561228a5761228a6122a5565b5060010190565b6000826122a0576122a06122bb565b500690565b634e487b7160e01b600052601160045260246000fd5b634e487b7160e01b600052601260045260246000fd5b634e487b7160e01b600052604160045260246000fd5b6001600160e01b031981168114610ee257600080fdfe4142434445464748494a4b4c4d4e4f505152535455565758595a6162636465666768696a6b6c6d6e6f707172737475767778797a303132333435363738392b2fa26469706673582212201f6b119fc6a21d6f9795fcc1730190f17000983f70c6e5ca493b87959ed5602e64736f6c63430008040033",
    "linkReferences": {},
    "deployedLinkReferences": {}
}